:020000040800F2
:10000000200D00204501000881170008790F000825
:100010007D170008B10A000807250008000000004D
:10002000000000000000000000000000611900084E
:10003000790C00080000000009180008751A000873
:100040005F0100085F0100085F0100085F01000810
:100050005F0100085F0100085F0100085F01000800
:100060005F0100085F0100085F0100085F010008F0
:100070005F0100085F0100085F0100085F010008E0
:100080005F0100085F0100085F0100085F010008D0
:100090005F0100085F0100085F0100085F010008C0
:1000A0005F0100085F0100085F0100085F010008B0
:1000B000E91E00085F0100085F0100085F010008F9
:1000C0005F0100085F0100085F0100085F01000890
:1000D0005F010008A9200008B12100085F010008A5
:1000E0005F0100085F0100085F0100085F01000870
:1000F0005F0100085F0100085F0100085F01000860
:100100005F0100085F0100085F0100085F0100084F
:100110005F0100085F0100085F0100085F0100083F
:100120005F0100085F0100085F0100085F0100082F
:10013000DFF80CD000F048FB00480047B13400085D
:10014000200D00200648804706480047FEE7FEE7EE
:10015000FEE7FEE7FEE7FEE7FEE7FEE7FEE7FEE777
:10016000B51A00083101000840EA01039B0703D0DB
:1001700009E008C9121F08C0042AFAD203E011F8E6
:10018000013B00F8013B521EF9D27047D2B201E0A8
:1001900000F8012B491EFBD270470022F6E710B58C
:1001A00013460A4604461946FFF7F0FF204610BDE5
:1001B00030B505462A460B4612F8010B13F8014BE1
:1001C00008B1A042F8D01CB1002802D06D1CF1E7A4
:1001D000284630BD421C10F8011B0029FBD1801AB3
:1001E000704710B5002200E0521C835C8C5CA34277
:1001F00001D1002BF8D1D8B2E1B2401A10BD0346AC
:1002000011F8012B00F8012B002AF9D1184670478C
:100210002DE9FE4F804681EA0300C00F0C46009096
:1002200021F0004123F00045B8EB0200A94105D2BE
:100230004046214690461C460B46024623F00040AD
:10024000104347D0270DC7F30A00C3F30A510290A9
:10025000401A019040286BDAC3F3130040F4801B6E
:100260000098924620B10023D2EB030A63EB0B0BFC
:1002700001985946C0F14002504600F078F9064610
:100280000D4650465946019A00F090F910EB0800CF
:100290006141002487EA115284EAE7731A4340D08F
:1002A000009A62B3019A012A4FEA075215DC001B3B
:1002B00061EB02014FF0004202EA0752CDE9004231
:1002C000001C41F5801132462B4600F090F903B036
:1002D000BDE8F08F40462146F9E7001B61EB0201C3
:1002E000001C41F5801300185B412018A2F500178F
:1002F00047EB030140EAD570B6196D4111E06D0876
:100300004FEA360645EAC0754FEA0752001B61EB1B
:100310000201001C41F5801149084FEA3000001924
:10032000514132462B4603B0BDE8F04F00F050B9C2
:100330000098012240000023D0EB020263EBE0733F
:10034000009821464FEAE074B8EB000061EB04012D
:10035000E9E783F000435BE781F0004158E72DE9CE
:10036000FE4F81EA030404F0004421F000410094B0
:100370004FF0000B23F0004350EA01045ED052EA34
:1003800003045BD0C3F30A54C1F30A552C44A4F20E
:10039000F3340194A0FB0254C1F3130141F4801122
:1003A000C3F3130343F4801301FB024400FB034E29
:1003B000840A970A44EA815447EA8357A4FB0768F2
:1003C00002958D0A05FB07854FEA932C04FB0C541C
:1003D0002705029D4FEA065847EA1637B5EB080590
:1003E0006EEB070C870E920E47EA811742EA8312E2
:1003F000A7FB0201B6EB0B0164EB00042B0D43EAF3
:100400000C335E1844EB1C50DA465146E7FB020100
:10041000C5F313044FEA0B3343EA14534FEA043293
:10042000019C43EA0603A4F10C040294009CCDE96C
:1004300000B400F0DCF803B0BDE8F08F0020014606
:10044000F9E70EB5C10F80EAE0700844CA07002141
:1004500040F233438DE80E000A460B4600F0C7F821
:1004600003B000BD0EB540F2334102910021CDE949
:1004700000110A460B4600F0BAF803B000BDC1F304
:100480000A5210B5C1F3130140F2FF3341F4801159
:100490009A4201DA002010BD40F233439A42A2F2A0
:1004A000334203DC524200F071F810BD904010BDA1
:1004B00030B5041E71F1000404DB4FF000444042EB
:1004C00064EB0101141E73F1000405DB1C464FF0C0
:1004D0000043524263EB0403994208BF904230BD8F
:1004E00030B50B46014600202022012409E021FA04
:1004F00002F59D4205D303FA02F5491B04FA02F501
:100500002844151EA2F10102F1DC30BD2DE9F05F97
:100510000546002092469B46884606468146402472
:100520001BE0284641464746224600F02FF8534636
:100530005A46C01A914110D311461846224600F07F
:1005400016F82D1A67EB01084F46224601200021BC
:1005500000F00DF817EB00094E41201EA4F1010434
:10056000DFDC484631462A464346BDE8F09F202A54
:1005700004DB203A00FA02F1002070479140C2F1FA
:10058000200320FA03F3194390407047202A04DB2C
:10059000203A21FA02F00021704721FA02F3D040FC
:1005A000C2F120029140084319467047202A06DB19
:1005B000CB17203A41FA02F043EAE07306E041FA31
:1005C00002F3D040C2F1200291400843194670471F
:1005D00010B5141E73F1000408DA401C41F100014B
:1005E00092185B411A4301D120F0010010BD2DE9A2
:1005F000F04D92469B4611B1B1FA81F202E0B0FA99
:1006000080F220329046FFF7B2FF04460F4640EAE0
:100610000A0041EA0B0153465A46084313D01146DB
:1006200053EA010019D0C8F140025046FFF7AEFF6F
:1006300005460E46504659464246FFF798FF084386
:1006400005D0012004E020463946BDE8F08D0020A9
:10065000054346EAE0762C4337430A986305E40AEB
:10066000A0EB08000022FD0A44EA47540A3002D5F4
:1006700000200146E9E7010510196941DDE9084557
:1006800000196941BDE8F04DA2E72DE9F04D81EA7E
:10069000030404F0004B21F0004514464FF0000A1B
:1006A00023F0004150EA050220D054EA01021DD097
:1006B000C5F30A570246C5F31303C1F31300C1F390
:1006C0000A5640F4801543F48013A7EB0608101B6C
:1006D000D64608F2FD3873EB050002D308F1010895
:1006E00001E092185B41B8F1000F03DA00200146E7
:1006F000BDE8F08D00204FF48011064684460EE0E0
:10070000171B73EB050705D3121B63EB05030643A9
:100710004CEA010C49084FEA300092185B4150EA5C
:100720000107EDD152EA030012D082EA040083EA05
:100730000501084305D0101BAB4106D2012200235E
:1007400006E000224FF0004302E06FF00102531078
:100750001AEB06004CEB085110EB0A0041EB0B01C1
:10076000BDE8F04DFFF734BF70B521F000430343FF
:100770000CD0C1F30A550024D5EB040564EB040347
:10078000D617AD1AB34102DB0020014670BD201818
:1007900041EB025170BDC1F30A52C1F3130140F2A3
:1007A000FF3341F480119A4202DA0020014670477B
:1007B00040F233439A42A2F2334202DC5242FFF744
:1007C000E5BEFFF7D4BE0000064C074D06E0E0682A
:1007D00040F0010394E8070098471034AC42F6D388
:1007E000FFF7AAFC24C2020844C202082DE9F04D1A
:1007F00000231A461B1A8A4103DB00200146BDE88C
:10080000F08DC1F30A52C1F3130141F480154FF08A
:10081000000BD10702D100186D41521E002704467B
:1008200040F2FF11384601EB620A3E46804602461E
:1008300000204FF48011FFF7A9FEC2197141BB18C7
:1008400046EB0100B4EB030C75EB000C04D3E41A87
:1008500065EB000517460E46241908F101006D41AD
:1008600080463428E3DDF91946EB0600091BA84150
:1008700003D24FF0FF32134601E0002213461BEB78
:10088000070046EB0A51BDE8F04DFFF7A1BE21B1CC
:10089000826842F00102826003E0826822F0010275
:1008A0008260704710B504461248844208D1012185
:1008B000401500F0DBFF0021601500F0D7FF17E0C6
:1008C0000D48844208D10121001500F0CFFF00211E
:1008D000201500F0CBFF0BE00848844208D101212D
:1008E000C80300F0C3FF00214FF4004000F0BEFF3A
:1008F00010BD00000024014000280140003C0140E0
:10090000014600208A6802F004020AB1012000E0DA
:10091000002070470146C86C80B270470246002034
:1009200013680B400BB1012000E000207047014626
:1009300000208A6802F008020AB1012000E00020CD
:100940007047000030B502460020002350680F4C6D
:1009500020400D790C6844EA0524204350609068DB
:100960000B4C2040D1E902542C434D7944EA450414
:1009700020439060D06A20F470000C7C641EE4B2C6
:10098000234340EA0350D06230BD0000FFFEF0FF79
:10099000FDF7F1FFF0B504460D4600200021092DBA
:1009A00011DDE068A5F10A0606EB4607072606FA00
:1009B00007F18843A5F10A0606EB460603FA06F19D
:1009C0000843E0600CE0206905EB4507072606FABE
:1009D00007F1884305EB450603FA06F10843206159
:1009E000072A0FDA606B561E06EB86071F2606FAEB
:1009F00007F18843561E06EB860605FA06F1084302
:100A0000606322E00D2A0FDA206BD61F06EB860703
:100A10001F2606FA07F18843D61F06EB860605FA5D
:100A200006F10843206310E0E06AA2F10D0606EB30
:100A300086071F2606FA07F18843A2F10D0606EB8A
:100A4000860605FA06F10843E062F0BD816841F0D0
:100A500008018160704721B1826842F4A00282607F
:100A600003E0826822F4A00282607047816841F04E
:100A7000040181607047000008B50121082000F0E2
:100A8000E5FE4FF48070ADF8000010208DF80300F3
:100A900003208DF802006946044800F07CF94FF409
:100AA0008071024800F04AFA08BD0000000C0140C5
:100AB00000BFFEE710B5002400F024F804E0601C3D
:100AC000C4B2012002F0C2FA0D48006808B1642CDB
:100AD000F5DB642C01DB012010BD002404E0601C68
:100AE000C4B2012002F0B2FA0548006808B9642CCB
:100AF000F5DB642C01DB0120EEE70020ECE70000D1
:100B00002C01244208B54FF40060ADF800004820E5
:100B10008DF803006946024800F03DF908BD000069
:100B20000020014008B54FF40060ADF8000010202F
:100B30008DF8030003208DF802006946014800F09B
:100B40002AF908BD0020014008B50121080200F083
:100B50007DFE4FF40060ADF8000010208DF803001A
:100B600003208DF802006946064800F014F94FF49E
:100B70000061044800F0E4F900F068F8FFF79AFF1C
:100B800008BD00000020014010B5002404E0601CF6
:100B9000C4B2012002F05AFA0D48006808B1642C72
:100BA000F5DB002404E0601CC4B2012002F04EFA20
:100BB0000748006808B9642CF5DB282002F046FAE3
:100BC0000348006808B1012010BD0020FCE70000C8
:100BD0002C01244270B50024002506E06006040EB6
:100BE000FFF7D2FF0443681CC5B2082DF6DB204690
:100BF00070BD7CB505460E4600F028F8FFF75AFF99
:100C0000F8B9002405E0FFF7E5FF0DF80400601CCB
:100C1000C4B2052CF7DB9DF800009DF801100844D4
:100C20009DF8021008449DF8031008449DF8041034
:100C3000884208D19DF8000030709DF802002870AD
:100C400001E001207CBD0020FCE7000010B5FFF7AB
:100C500069FF002006490860142002F0B4F9012061
:100C60000449C1F8AC011E2002F0F0F910BD0000EB
:100C7000AC012442000024427047000051B18200C0
:100C8000A2F1C042126842F001038200A2F1C04208
:100C9000136009E08200A2F1C0421268034B1A40BF
:100CA0008300A3F1C0431A6070470000FEFF0F00ED
:100CB000D0E901121143C26811430269114342692C
:100CC000114382691143C2691143026A1143426AA6
:100CD0001143826A1143C26A1143026B11430268D5
:100CE0009200A2F1C0421160816808290BD101680D
:100CF0008900A1F1C041096841F040020168890002
:100D0000A1F1C0410A60416B0968426B526841EA37
:100D10000211426B926841EA0221426B928941EAD8
:100D20000241426B128A41EA0251426B127D41EA52
:100D30000261426B926911430268521C9200A2F157
:100D4000C0421160C16AB1F5804F1BD1816B096847
:100D5000826B526841EA0211826B926841EA022179
:100D6000826B128A41EA0251826B127D41EA026172
:100D7000826B9269114302689200A2F1C042C2F8EC
:100D8000041107E06FF0704201688900A1F1C041D1
:100D9000C1F8042170472DE9F041024600250026E4
:100DA000002000230024002791F803C00CF00F0559
:100DB00091F803C00CF0100CBCF1000F03D091F8B7
:100DC00002C04CEA050591F800C0BCF1000F31D01B
:100DD000146800202BE04FF0010C0CFA00F3B1F87E
:100DE00000C00CEA03069E4220D183004FF00F0C96
:100DF0000CFA03F7BC4305FA03FC4CEA040491F82F
:100E000003C0BCF1280F06D14FF0010C0CFA00FC16
:100E1000C2F814C00AE091F803C0BCF1480F05D134
:100E20004FF0010C0CFA00FCC2F810C0401C08285E
:100E3000D1D31460B1F800C0BCF1FF0F34DD5468A9
:100E400000202EE000F1080C4FF0010808FA0CF326
:100E5000B1F800C00CEA03069E4221D183004FF096
:100E60000F0C0CFA03F7BC4305FA03FC4CEA04042C
:100E700091F803C0BCF1280F05D100F1080C08FA65
:100E80000CF8C2F8148091F803C0BCF1480F07D1E8
:100E900000F1080C4FF0010808FA0CF8C2F81080B5
:100EA000401C0828CED35460BDE8F081F0B50A4656
:100EB000002300240021002500F00046B6F1004F79
:100EC00002D11D4EF16901E01B4E7168C0F303456C
:100ED00083B200F44016B6F5401F08D121F07061CE
:100EE000154E766826F07066134F7E6012E000F4AF
:100EF0008016B6F5801F06D1032606FA05F4A14335
:100F000041F0706106E0460D360103FA06F6B14382
:100F100041F0706122B1460D360103FA06F6314305
:100F200000F00046B6F1004F02D1034EF16101E03E
:100F3000014E7160F0BD000000000140416170474A
:100F40000161704710B50446072301222146094874
:100F5000FFF720FD01210748FFF77DFD00BF0221BB
:100F60000448FFF7DBFC0028F9D00248FFF7D2FC69
:100F700010BD0000003C014000BFFEE770B5064612
:100F80000F484088401E83B20D480088401E82B240
:100F90000021084600F02FF900240CE0002504E0B1
:100FA000304600F051FB681C85B205484088A842D5
:100FB000F6DC601C84B202480088A042EEDC70BD02
:100FC0002400002000B502460F4882716AB936201D
:100FD00000F02EFB002000F031FB4FF4F0700A49C6
:100FE00048804FF4A07008800CE0362000F020FB11
:100FF000602000F023FB4FF4A070034948804FF4B9
:10100000F070088000BD00002400002070B5044688
:101010000D4616462B4622462946204600F0EBF8A0
:10102000304600F011FB70BD2DE9FF4F84B08146C2
:101030008A460020039002900698A0EB09050798C5
:10104000A0EB0A06CDF80490CDF800A0002D01DD3C
:10105000012705E00DB9002702E04FF0FF376D4290
:10106000002E02DD4FF0010806E016B94FF000082F
:1010700002E04FF0FF387642B54201DD2C4600E039
:1010800034464FF0000B21E0009A91B2019A90B2E1
:1010900000F078F8039828440390029830440290B6
:1010A0000398A04205DD0398001B03900198384483
:1010B00001900298A04205DD0298001B0290009862
:1010C000404400900BF101001FFA80FB601C834537
:1010D000DADD08B0BDE8F08F2DE9FF4F84B081461E
:1010E0008A460020029083460698A0EB09050798DF
:1010F000A0EB0A06CDF80490CDF800A0002D01DD8C
:10110000012705E00DB9002702E04FF0FF376D42DF
:10111000002E02DD4FF0010806E016B94FF000087E
:1011200002E04FF0FF387642B54201DD2C4600E088
:101130003446002003901EE0009A91B2019A90B2CA
:10114000119AFFF763FF029828440290B344029873
:10115000A04205DD0298001B0290019838440190DE
:10116000A34504DDABEB040B0098404400900398CA
:10117000401C80B20390611C03988842DCDD08B0FB
:10118000BDE8F08F30B504460D462B462246294671
:10119000204600F030F80248008800F055FA30BDD3
:1011A00020000020F0B504460D4616461F462B468B
:1011B000324629462046FFF737FF3B46224629465E
:1011C0002046FFF731FF3B46324639462046FFF7BF
:1011D0002BFF3B46324629463046FFF725FFF0BD40
:1011E00010B50246012000E050430B1EA1F101049E
:1011F000E1B2F9D110BD70B504460D462A2000F0C9
:1012000017FA2646E11704EB1161C1F30F2000F035
:1012100015FAE11704EB11610912A4EB012188B260
:1012200000F00CFA1646D11702EB1161C1F30F2042
:1012300000F004FA1646D11702EB11610912A2EB75
:10124000012188B200F0FAF92B2000F0F1F92E46C6
:10125000E91705EB1161C1F30F2000F0EFF9E91771
:1012600005EB11610912A5EB012188B200F0E6F946
:101270001E46D91703EB1161C1F30F2000F0DEF910
:101280001E46D91703EB11610912A3EB012188B2A5
:1012900000F0D4F92C2000F0CBF970BD2DE9F84F07
:1012A00080460E4617461C46B3462046E31704EB1D
:1012B0005373DB1021464FEAE47C04EB5C7C4FEA7D
:1012C000EC0CA4EBCC0CBCF1000F02D04FF0010CE5
:1012D00001E04FF0000C6344224604EBD27C4FEA5D
:1012E0006C0C03FB0CF3DBB20093A7F12000C7B238
:1012F000002556E00C2C07D107EB47002B4901EBEA
:10130000800010F8059013E0102C05D1284800EB60
:10131000071010F805900BE0182C07D107EBC70059
:10132000244901EB800010F8059001E0BDE8F88F3A
:101330004FF0000A2FE009F0800030B11E4802880B
:1013400031464046FFF762FE07E00A9828B91B487D
:10135000028831464046FFF759FE4FEA49604FEA9E
:101360001069701C86B216484088B04200DCDDE788
:10137000A6EB0B00A0420AD15E4608F101001FFA5D
:1013800080F80F480088404500DCCFE706E00AF10E
:10139000010000F0FF0ABAF1080FCCDB00BF681CA7
:1013A000C5B200988542A5DB00BFBFE7885202089E
:1013B000FC560208EC5C02082000002022000020FD
:1013C000240000202DE9FF4F81B004460F4615464A
:1013D000A34600975FE0002656E006EB8600C0EBD0
:1013E0008610304911F81000297888424AD106EB5E
:1013F0008600C0EB86102B4901EB400040786978ED
:1014000088423FD14FF0000839E006EB8600C0EB80
:101410008610244901EB4000801C10F808A04FF012
:10142000000925E00AF08000802805D139462046D1
:10143000049AFFF7EBFD05E01B4802883946204679
:10144000FFF7E4FD4FF6FF7000EA4A0A601C84B221
:10145000A4EB0B00202807D15C46781C87B20098CB
:10146000381A1D2800D1009F09F1010000F0FF0982
:10147000B9F1080FD6DB08F1010000F0FF08B8F160
:10148000740FC2DB701CC6B2782EA6DBAD1C04F153
:10149000200084B2A346287800289CD105B0BDE87E
:1014A000F08F0000C8990208220000202DE9FF4FAC
:1014B00081B0074691461E460E9D4FF0000A00245B
:1014C00039E0301B401EC1B20A20FFF789FEB9FB8C
:1014D000F0F00A21B0FBF1F201FB1208BAF1000FA3
:1014E00016D1701EA04213DDB8F1000F0ED10020FE
:1014F000AB4605EBDB71491001FB0471009088B22B
:101500002B4620220299FFF7C9FE12E04FF0010A94
:101510000020AB4605EBDB71491001FB0471009024
:1015200088B208F13001CAB22B460299FFF7B6FE25
:1015300000BF601CC4B2B442C3DB05B0BDE8F08F8D
:101540002DE9F84F06460F4614461D464FF0000A97
:10155000D346002000907819401E83B23019401EF7
:1015600082B239463046FFF746FE04FB05F04000E4
:101570000090D04625E04FF000091CE00BF101017E
:101580000A9810F801A04FF6FF7000EA0A2A0A989C
:1015900010F80B0040EA0A0A07EB080291B206EBCA
:1015A000090290B25246FFF731FD0BF1020B09F12F
:1015B00001001FFA80F9A145E0DB08F101001FFAE4
:1015C00080F8A845D7DBBDE8F88F2DE9F847044639
:1015D0000D4690469946DDE9096704F0FF0A08EBDD
:1015E00004001FFA80F809EB05001FFA80F916E0E5
:1015F000444502DB5446A81985B24D4500DB14E092
:10160000002000903A78334629462046FFF746FEF0
:10161000304606EBD07104EB61018CB27F1C387848
:101620007E2802DC38782028E2DA00BFBDE8F8879F
:101630000149088070470000FE07006C01490880DE
:10164000704700000008006C0149088070470000E6
:101650000008006C08B50121482000F0F7F82020B0
:10166000ADF8000010208DF8030003208DF8020073
:1016700069460948FFF78FFB20210748FFF760FC08
:101680002020ADF8000069460448FFF784FB2021C4
:101690000248FFF755FC08BD000C0140001801404E
:1016A00070B50024002508E00620FFF74BFC044439
:1016B000052001F088FC681CC5B20A2DF4DB0A2065
:1016C000B4FBF0F4B4F57A6F01D94FF47A642820B2
:1016D000B4FBF0F0C0F16400C0B270BD00B587B0DB
:1016E0000121802000F0B2F80121C80300F0AEF81B
:1016F0000121C80300F0BAF800214FF4004000F0C7
:10170000B5F84FF48070ADF8180000208DF81B007C
:1017100006A91848FFF73FFB1748FFF7C3F800205A
:1017200001908DF808008DF809004FF460200390B7
:101730000020049001208DF8140001A90E48FFF745
:1017400001F901210C48FFF7A2F80B48FFF77EF9D9
:1017500000BF0948FFF7EBF80028FAD10648FFF769
:1017600085F900BF0448FFF7CBF80028FAD107B08D
:1017700000BD0000001C0140003C014000BFFEE72E
:101780007047000070B5002100230F22C47804B315
:10179000154C246804F4E064C4F5E064210AC1F146
:1017A0000403CA40447804FA03F1847814402143C6
:1017B00009010E4C0678A155047804F01F05012498
:1017C000AC4005786D11AD0005F1E025C5F800418C
:1017D00009E0047804F01F050124AC40044D0678AC
:1017E000761145F8264070BD0CED00E000E400E005
:1017F00080E100E002490143024A116070470000A5
:101800000000FA050CED00E07047000029B1064A1F
:1018100052690243044B5A6104E0034A526982430D
:10182000014B5A61704700000010024029B1064A7E
:10183000D2690243044BDA6104E0034AD26982436D
:10184000014BDA61704700000010024029B1064ADE
:1018500092690243044B9A6104E0034A926982430D
:10186000014B9A61704700000010024029B1064AFE
:10187000D2680243044BDA6004E0034AD268824330
:10188000014BDA60704700000010024030B50021C3
:101890000022002400232D4D6D6805F00C0121B1BC
:1018A000042905D0082923D105E0294D056022E04F
:1018B000274D05601FE0254D6D6805F47012234D1E
:1018C0006D6805F48034022505EB92421CB9214D68
:1018D000554305600BE01D4D6D6805F400351DB1E5
:1018E0001C4D5543056002E0194D5543056002E06B
:1018F000174D056000BF00BF144D6D6805F0F00185
:101900000909154D6B5C0568DD4045600F4D6D683C
:1019100005F4E061090A104D6B5C4568DD408560A7
:101920000A4D6D6805F46051C90A0B4D6B5C456842
:10193000DD40C560054D6D6805F44041890B074DDC
:101940006B5CC568B5FBF3F5056130BD0010024066
:1019500000127A0000093D000B0000201B0000204F
:10196000704710B500F002F810BD00000CB5002063
:10197000019000903348006840F48030314908609D
:1019800000BF3048006800F4003000900198401C0F
:101990000190009818B90198B0F5A06FF1D12948CD
:1019A000006800F4003010B10120009001E0002038
:1019B00000900098012843D12348006840F01000AF
:1019C000214908600846006820F0030008600846C6
:1019D000006840F0020008601A48406819494860F1
:1019E0000846406848600846406840F480604860A7
:1019F0000846406820F47C1048600846406840F47F
:101A0000E81048600846006840F08070086000BF39
:101A10000C48006800F000700028F9D009484068C0
:101A200020F00300074948600846406840F0020083
:101A3000486000BF0348406800F00C000828F9D156
:101A40000CBD00000010024000200240042808D114
:101A50004FF0E021096941F004014FF0E0221161EB
:101A600007E04FF0E021096921F004014FF0E02286
:101A7000116170477047000010B504466FF0040014
:101A8000FFF7E4FFE11704EB5171C1F3C701074A07
:101A900011701046007800EB4001C1EBC0104FF60A
:101AA000FF7101EAC0000249088010BD2E0000202D
:101AB0003000002010B51348006840F001001149C3
:101AC000086008464068104908400E4948600846CA
:101AD00000680E4908400B4908600846006820F479
:101AE000802008600846406820F4FE0048604FF4FB
:101AF0001F008860FFF735FF4FF000600449086061
:101B000010BD0000001002400000FFF8FFFFF6FECD
:101B100008ED00E000B59DB001210802FFF776FE58
:101B200001200790002008900F20099000200A90C3
:101B30000B900C900D9015200090019005200290C4
:101B40000020039004900590069006200E9000203F
:101B50000F9010901020119000201290149013906C
:101B6000159016904FF480501790002018904FF465
:101B70008040199000201A9007A81B90CDF870D0D3
:101B80000EA8FFF795F801210620FFF777F81DB0A2
:101B900000BD000008B501214FF4B470FFF756FEF8
:101BA0004CF23370ADF8000018208DF803000320CC
:101BB0008DF8020069461848FFF7EDF84FF680707F
:101BC000ADF8000018208DF8030003208DF8020006
:101BD00069461248FFF7DFF841F20100ADF8000056
:101BE00018208DF8030003208DF8020069460C4888
:101BF000FFF7D1F80120ADF8000010208DF80300A8
:101C000003208DF8020069460648FFF7C4F801205A
:101C10000549086008BD000000140140001801409B
:101C200000200140000C01408081214210B5FFF7E7
:101C3000B1FFFFF76FFF322001F0C5F9D320FFF7A6
:101C4000F7FCA3480088A3498880A14800888880C1
:101C50009F4800888880084680884FF6FF7101EA17
:101C600000209C4988800846808899490988084353
:101C7000984988800846818897A000F0ABFCFF2037
:101C8000FFF7D6FCFF20FFF7D3FC052001F09BF9FE
:101C9000FF20FFF7CDFCFF20FFF7CAFCFF20FFF776
:101CA000C7FCFF20FFF7C4FC0A2001F08CF9B0202C
:101CB000FFF7BEFC0020FFF7C1FCB320FFF7B8FC24
:101CC0000220FFF7BBFC0020FFF7B8FC0020FFF765
:101CD000B5FC0020FFF7B2FCC020FFF7A9FC1320E1
:101CE000FFF7ACFC3B20FFF7A9FC0020FFF7A6FCA8
:101CF0000020FFF7A3FC0020FFF7A0FC0120FFF766
:101D00009DFC0020FFF79AFC4320FFF797FCC120C1
:101D1000FFF78EFC0820FFF791FC1B20FFF78EFCDD
:101D20000820FFF78BFC0820FFF788FCC420FFF792
:101D30007FFC1120FFF782FC0120FFF77FFC73205E
:101D4000FFF77CFC0120FFF779FCC620FFF770FC51
:101D50000020FFF773FCC820FFF76AFC0F20FFF795
:101D60006DFC0520FFF76AFC1420FFF767FC5C2080
:101D7000FFF764FC0320FFF761FC0720FFF75EFC20
:101D80000720FFF75BFC1020FFF758FC0020FFF74F
:101D900055FC2320FFF752FC1020FFF74FFC0720D3
:101DA000FFF74CFC0720FFF749FC5320FFF746FCE8
:101DB0000C20FFF743FC1420FFF740FC0520FFF741
:101DC0003DFC0F20FFF73AFC2320FFF737FC0020F3
:101DD000FFF734FC3520FFF72BFC0020FFF72EFC2B
:101DE0004420FFF725FC0020FFF728FC0120FFF727
:101DF00025FCD020FFF71CFC0720FFF71FFC072065
:101E0000FFF71CFC1D20FFF719FC0320FFF716FC51
:101E1000D120FFF70DFC0320FFF710FC5B20FFF73C
:101E20000DFC1020FFF70AFCD220FFF701FC032075
:101E3000FFF704FC2420FFF701FC0420FFF7FEFB62
:101E40002A20FFF7F5FB0020FFF7F8FB0020FFF743
:101E5000F5FB0120FFF7F2FB3F20FFF7EFFB2B2004
:101E6000FFF7E6FB0020FFF7E9FB0020FFF7E6FBAA
:101E70000120FFF7E3FBDF20FFF7E0FB3620FFF751
:101E8000D7FB0020FFF7DAFBC020FFF7D1FB1320C0
:101E9000FFF7D4FB3A20FFF7CBFB5520FFF7CEFB33
:101EA0001120FFF7C5FB962001F08DF82920FFF7E0
:101EB000BFFB1E2001F087F82C20FFF7B9FB0020A4
:101EC000FFF780F84FF6FF70FFF758F810BD0000DD
:101ED0000008006C24000020204C43442049443A70
:101EE00025780D0A000000000EB50121880700F0DA
:101EF0006FF898B10A4800780A4909780A4A1278B6
:101F0000CDE9002102900948437802780849094840
:101F100000F090F90121880700F04BF80EBD000099
:101F20000A00002009000020000000200500002019
:101F3000DCC10208004400407FB505460C46012183
:101F40000846FFF773FC681E80B2ADF80800601EFB
:101F500080B2ADF804000020ADF80A00ADF806002C
:101F600001A94FF0804000F04DF801221146900782
:101F700000F03FF80121880700F01BF81C208DF8C5
:101F8000000006208DF8010004208DF802000120D9
:101F90008DF803006846FFF7F5FB0121880700F084
:101FA00005F80121880700F007F87FBDCA430282C7
:101FB0007047CA430282704721B1028842F0010291
:101FC000028004E002884FF6FE731A4002807047D8
:101FD00030B50246002000230024158A05EA0103DB
:101FE000958905EA010413B10CB1012000E000203D
:101FF00030BD1AB183890B43838102E083898B430F
:1020000083817047002202881D4B98420ED01D4BE1
:1020100098420BD0B0F1804F08D01B4B984205D0AE
:102020001A4B984202D01A4B984204D14FF68F7344
:102030001A404B881A43174B984207D0164B9842C8
:1020400004D04FF6FF431A40CB881A4302808B8896
:1020500083850B8803850A4B98420BD0094B984225
:1020600008D00E4B984205D00D4B984202D00D4B34
:10207000984201D10B7A03860123838270470000C6
:10208000002C0140003401400004004000080040E2
:10209000000C0040001000400014004000400140CF
:1020A000004401400048014010B540F225511D4850
:1020B00000F065F910B31B4800F01CFAC4B21A48CE
:1020C000008800F40040C8B91748008800F4804038
:1020D00060B10A2C03D000201349088020E0124888
:1020E000008840F400401049088019E00D2C06D10A
:1020F0000D48008840F480400B49088010E00A48F1
:102100000088C0F30D0009490C5407480088401CA2
:102110000549088008460088C72801DD002008809E
:1021200010BD00000038014032000020520800209D
:1021300010B586B0044601210420FFF787FB01217A
:102140008803FFF783FB4FF40070ADF81400032001
:102150008DF8160018208DF8170005A91248FEF713
:102160001AFE4FF48060ADF8140004208DF81700BB
:1021700005A90D48FEF70FFE01940020ADF80800F8
:10218000ADF80A00ADF80C00ADF810000C20ADF869
:102190000E0001A9054800F041F90121034800F0B3
:1021A000D5F806B010BD000000080140003801401D
:1021B00010B540F225511C4800F0E1F8F8B11A487A
:1021C00000F098F9C4B21948008800F40040B0B992
:1021D0001648008800F4804048B10A2C03D0002043
:1021E000124908801EE00020104908801AE00D2CDA
:1021F00006D10E48008840F480400C49088011E068
:102200000A480088C0F30D0009490C5407480088AB
:10221000401C0649088008460088B0F5806F01DB45
:102220000020088010BD0000004400402C00002069
:102230003E0400200FB470B586B006460CA801908D
:1022400073E00B9800785C281CD10B98401C0B9015
:1022500000786E2809D072280FD10D21304600F089
:102260004EF90B98401C0B900BE00A21304600F011
:1022700046F90B98401C0B9003E00B98401C0B9008
:1022800000BF4BE00B980078252840D10B98401CEC
:102290000B900078642818D0732833D1019810C8A7
:1022A00001900BE02178304600F029F900BF802131
:1022B000304600F057F80028F9D0641C2078002838
:1022C000F0D10B98401C0B9020E0019820C80190A1
:1022D0000A2202A9284601F093F802AC0BE021780B
:1022E000304600F00CF900BF8021304600F03AF88B
:1022F0000028F9D0641C20780028F0D10B98401CED
:102300000B9003E00B98401C0B9000BF06E00B986D
:1023100010F8011B0B90304600F0F1F800BF80214F
:10232000304600F01FF80028F9D00B9800780028FC
:1023300087D106B070BC5DF814FB01F40072B2F5F1
:10234000007F00D100BFCA430280704721B182895B
:1023500042F40052828104E082894DF6FF731A40F4
:102360008281704702460020B1F5007F00D100BF96
:1023700013880B400BB1012000E00020704770B5BE
:102380000246002400230025002040F66A16B142D0
:1023900000D100BFC1F3421501F01F03012606FA68
:1023A00003F3012D02D19689334006E0022D02D1BC
:1023B000168A334001E0968A33400C12012606FA51
:1023C00004F41688344013B10CB1012000E0002061
:1023D00070BDF0B50346002400260025002040F61D
:1023E0006A17B94200D100BF1846C1F3421401F088
:1023F0001F06012707FA06F5012C01D10C3004E075
:10240000022C01D1103000E014301AB107682F43BC
:10241000076002E00768AF430760F0BD2DE9F047B1
:1024200086B005460E460024A24600BFA1460027FE
:10243000B08900B100BF2F462C8A4CF6FF700440D3
:10244000F08804432C82AC894EF6F3100440B08827
:1024500031890843718908430443AC81AC8A4FF643
:10246000FF400440B0890443AC8201A8FFF70EFA94
:102470001F48874202D1DDF810A001E0DDF80CA072
:10248000A88900F4004040B10AEBCA0000EB0A1032
:1024900031684900B0FBF1F807E00AEBCA0000EB35
:1024A0000A1031688900B0FBF1F86420B8FBF0F045
:1024B00004012009642101FB1089A88900F400406F
:1024C00040B1322000EBC900B0FBF1F000F0070092
:1024D000044308E0322000EB09106421B0FBF1F066
:1024E00000F00F0004432C8106B0BDE8F087000027
:1024F0000038014001468888C0F308007047C1F3E6
:1025000008028280704700BFFEE7000000B587B078
:1025100001214804FFF78AF901210820FFF796F905
:1025200001210420FFF792F901210846FFF78EF9F7
:1025300001212548FEF7BAFC0420ADF8180003205D
:102540008DF81A0018208DF81B0006A91F48FEF709
:1025500022FC0820ADF8180004208DF81B0006A905
:102560001A48FEF718FC4FF4E13002900020ADF855
:102570000C00ADF80E00ADF81000ADF814000C2002
:10258000ADF8120002A91248FFF748FF4021104899
:10259000FFF7D3FE012240F225510D48FFF719FF46
:1025A00001210B48FFF7D2FE26208DF804000320FE
:1025B0008DF805008DF8060001208DF8070001A8B0
:1025C000FFF7E0F807B000BD00023000000801404E
:1025D000004400400FB4054B10B503A9044A02980B
:1025E00000F05AF910BC5DF814FB000099300008A7
:1025F00034000020490050EAC12018BF04204A0DD1
:1026000018BF40F0010040F2FF72B2EB515F08BF0B
:1026100040F00200012808BF052070472DE9F04175
:102620004F1E00EBC7010446D1E9000115461E46C6
:1026300037F006020DD02A463346FDF790FE7F1E86
:1026400004EBC703D3E90023FDF7E2FD37F00602F0
:10265000F1D1022F25D0042F13D0062F18BFBDE8CB
:10266000F0812A463346FDF77AFED4E90A23FDF7C6
:10267000CFFD2A463346FDF772FED4E90823FDF765
:10268000C7FD2A463346FDF76AFED4E90623FDF767
:10269000BFFD2A463346FDF762FED4E90423FDF769
:1026A000B7FD2A463346FDF75AFED4E90223FDF76B
:1026B000AFFD2A463346FDF752FED4E90023BDE8BC
:1026C000F041FDF7A5BD0000002213461046014968
:1026D000FDF7DBBF0000F03FFDF79ABD0022134677
:1026E00010461146FDF7D1BF40F2013200204FF0F5
:1026F000E041FEF739B80000024A00201107FEF75A
:1027000033B8000001FDFFFF02E008C8121F08C136
:10271000002AFAD170477047002001E001C1121F62
:10272000002AFBD170470000014908607047000093
:10273000380000202DE9FF5FDDE90220010DDDF802
:1027400038B0024318D044F61050A1F2FF31414393
:102750000D140F98012820D0A5EB0B00401C5FEA58
:10276000000A4FF00004474EDFF81C91A046504687
:1027700016D5CAF1000728E00F98012443A20128CA
:1027800008D0002100980F9BC0E90021C0E9024356
:10279000BDE8FF9F6FEA0B01F4E7CBF10000DEE735
:1027A000074612E0F80707D022463346404649461E
:1027B000FDF7D5FD80468946224633461046194628
:1027C000FDF7CDFD04460E467F10002FEAD1DDE96E
:1027D0000201BAF1000F42464B4602DAFDF7BFFD97
:1027E00001E0FDF752FF04460E460022284BFDF79C
:1027F0005FFE03D84FF0FF30014607E00022254B73
:1028000020463146FDF704FDFDF7C5FF102409E021
:10281000002C0ADB0A220023FDF778FE019B3032F0
:102820001A55641E50EA0102F2D1641C019AC4F1E7
:10283000110314440F9A012A03D0012208430DD139
:102840000AE0084304D000204FF0110B0F9080E7FE
:10285000A3EB0B056D1E0DE05B4504DD4FF00002A0
:1028600005F1010504E003DA4FF00002A5F10105CE
:10287000002AECD000980F99C0E90231C0E9004568
:1028800086E70000000024400000F03F3000000018
:102890000000F0430000E03F2DE9FF4F95B09B465C
:1028A0008946064600250FE2252877D100242746D1
:1028B000F84A0121059400E0044316F8013F203B4B
:1028C00001FA03F01042F7D130782A2811D06FF0C6
:1028D0002F033078A0F13002092A16D8059A44F067
:1028E000020402EB820203EB42021044761C0590C4
:1028F000EFE759F8042B0592002A03DA504244F41A
:102900000054059044F00204761C30782E2816D12D
:1029100016F8010F44F004042A280DD06FF02F029E
:102920003078A0F13003092B09D807EB870302EBBD
:102930004303C718761CF3E759F8047B761C3078FC
:102940006C280FD006DC4C2817D068280DD06A28D8
:1029500014D104E0742810D07A280FD10DE044F48B
:1029600000140AE044F4801401E044F44014727846
:10297000824202D104F58014761C761C30786628D9
:102980000BD013DC582877D009DC002875D04528F7
:10299000F6D04628F4D047281AD19DE118E06328E4
:1029A00035D0642879D0652812D195E1702873D08C
:1029B00008DC6728F1D069286FD06E280DD06F2809
:1029C00006D1B5E073282CD0752875D0782874D03E
:1029D0005A46179990476D1C75E1C4F302500228BE
:1029E00009D003280DD0D9F8001004280DD00D60AF
:1029F00009F1040967E1D9F80010EA17C1E90052AA
:102A0000F6E7D9F800100D80F2E70D70F0E719F83D
:102A1000041B8DF8001000208DF80100EA4601200B
:102A200003E059F804AB4FF0FF3061074FF00001AD
:102A300002D40DE008F101018846B9420FDA804561
:102A4000F8DB1AF808100029F4D108E008F10101B8
:102A500088468142FADB1AF808100029F6D1059859
:102A60005B46A0EB080721463846179A00F094FA17
:102A7000284400EB080507E04DE029E10DE01AF8D5
:102A8000010B5A4617999047B8F10108F7D25B46F7
:102A900021463846179A13E142E00A220092C4F315
:102AA00002524FF0000A022A08D059F804CB032A38
:102AB0004FEAEC710AD00DE029E02AE009F10701A4
:102AC00021F00702F2E802C1914609E00FFA8CFCFE
:102AD0004FEAEC71042A03D14FFA8CFC4FEAEC71F7
:102AE000002907DA0A460021DCF1000C61EB020143
:102AF0002D2202E0220504D52B228DF8042001228C
:102B000003E0E20701D02022F7E7904659E00A21CE
:102B100002E010220DE010214FF0000A00910BE0BE
:102B200010224FF0000A44F004040827009203E04A
:102B300008224FF0000A0092C4F30252022A05D084
:102B400059F804CB0021032A08D009E009F1070154
:102B500021F00702F2E802C1914605E01FFA8CFC61
:102B6000042A01D10CF0FF0C4FF00008220728D5F1
:102B7000702806D0009B83F0100353EA0A0305D0A7
:102B80000EE040228DF80420012208E05CEA0102F8
:102B900006D030228DF804208DF8050002229046E0
:102BA000009B83F0080353EA0A030AD15CEA01029E
:102BB00001D1620705D530228DF804204FF00108BD
:102BC0007F1E582804D034A003900EA802900DE078
:102BD00036A0F9E753466046009AFDF797FC844615
:102BE0000398825C0298401E029002705CEA010029
:102BF000F0D1029806A9081A00F1200A600702D550
:102C000024F4803400E00127574502DDA7EB0A00D9
:102C100000E0002000EB0A01009005984144401AB2
:102C20000590E00306D45B462146179A059800F00C
:102C3000B3F90544002706E001A85A46C05D17997C
:102C400090476D1C7F1C4745F6DBE0030CD55B46C7
:102C50002146179A059800F09FF9054404E03020BA
:102C60005A46179990476D1C0099481E00900029FC
:102C7000F5DC08E0029802995A460078491C029156
:102C8000179990476D1CBAF10001AAF1010AF1DC15
:102C900065E1000009280100303132333435363720
:102CA0003839616263646566000000003031323398
:102CB0003435363738394142434445460000000038
:102CC00000F058F90544761C307800287FF4ECAD0C
:102CD00019B02846BDE8F08F620700D4062709F135
:102CE000070222F0070CFCE80223E14603F000484B
:102CF0005FEA080C02D00FF2702C0DE05FEA045C72
:102D000002D50FF2682C07E05FEAC47C02D00FF214
:102D1000602C01E0AFF2700C4FF0FF3823F000435D
:102D2000CDF850C065280CD006DC452809D04628CF
:102D30001DD047283DD13DE0662818D067287ED1B8
:102D400038E00021112F01DB112000E0781CCDE9D3
:102D5000000106A90EA8FFF7EDFCDDE90F010E9AB0
:102D600003910021009207F1010A04914DE04FF018
:102D700000400097CDE9011006A90EA8FFF7DAFC84
:102D8000DDE90F0203920E9B11990022DDF80CA0E1
:102D90000093049211B9791C00EB010AB7EB0A0009
:102DA00004D4C0F1FF3007F1010A0490AAEB070038
:102DB000019044E0012F00DA01270021112F01DDED
:102DC000112000E03846CDE9000106A90EA8FFF762
:102DD000B1FCDDE90F010E9A0391002104910092EC
:102DE000BA4621070CD40399514500DA8A46BAF154
:102DF000010F05DD009AAAF10101515C302908D0CC
:102E0000B84202DA10F1040F06DA0121CDE901100F
:102E100015E0AAF10101E9E7002805DC0499014465
:102E20000491AAEB000102E0411C514500DD8A46F5
:102E30000499401A401C01904FF000400290200776
:102E400004D40198504501DBCDF8048000208DF8B2
:102E50004F0002980DF14F07B0F1004F25D02B2005
:102E60000E9002984FF0020800280CDA40420290BF
:102E70002D200E9007E00A210298FDF731FB30313A
:102E8000029007F8011DB8F10001A8F10108F2DC79
:102E900002980028EFD1791E0E980870307800F063
:102EA000200040F0450007F8020D12A8C01B00F1F9
:102EB00007081498007800B1012000EB0A0101987E
:102EC00001EBE07105984144401A401E0590E00373
:102ED00006D45B462146179A059800F05DF8054434
:102EE0001498007818B15A46179990476D1CE00362
:102EF00024D55B462146179A059800F04DF8054405
:102F00001CE00498002807DBDDE90301884203DDAB
:102F10000098405C179901E0179930205A46904775
:102F2000049805F10105401C04900198401E019091
:102F300004D12E205A46179990476D1CBAF1000112
:102F4000AAF1010ADDDC05E017F8010B5A461799D2
:102F500090476D1CB8F10001A8F10108F4DC5B4654
:102F60002146179A0598ABE62D0000002B000000C3
:102F7000200000002DE9F041044600251E461746BA
:102F8000880404D405E039462020B0476D1C641E37
:102F9000F9D52846BDE8F0812DE9F0410446002529
:102FA0001E469046C80301D5302700E0202788043C
:102FB00004D505E041463846B0476D1C641EF9D57E
:102FC0002846BDE8F08170B504464FF4077094FBC5
:102FD000F0F0C6B24FF4077094FBF0F100FB114023
:102FE00085B205E04FF4077000F00AF8701EC6B213
:102FF000002EF7D115B1284600F002F870BD000090
:103000000146114A12884A434FF0E0235A610022D8
:103010009A611A46126942F001021A6100BF4FF02C
:10302000E022106900F001021AB100F48032002A97
:10303000F5D04FF0E022126922F001024FF0E023B8
:103040001A6100229A617047300000200146114A3F
:1030500012784A434FF0E0235A6100229A611A46DF
:10306000126942F001021A6100BF4FF0E0221069BC
:1030700000F001021AB100F48032002AF5D04FF0BE
:10308000E022126922F001024FF0E0231A610022CF
:103090009A6170472E00002070B504460D46E1B2DB
:1030A0000548FFF72CFA00BF80210348FFF75AF9C3
:1030B0000028F9D0204670BD003801400EB56946A1
:1030C00001A8FDF796FD9DF800008DF809009DF818
:1030D00004008DF80800BDF8081008460EBD10B5B4
:1030E000FEF7DEFA10BD000070B5ADF53E7D054679
:1030F000C8217AA8FDF751F8D022834946A8FDF7E8
:1031000033F8D0228049D03112A8FDF72DF80024E1
:103110007E497AA8FDF773F87AA8FDF75BF80646B2
:1031200032467AA97AA0FFF755FA7AA9684601F0E3
:1031300033F848226946ACA8FDF716F8794A7A4B6D
:10314000BBA80DF2E221CDE90332CDE90110B6A80A
:103150000DF2CE23ACAAB1A900907448FFF73AFA59
:1031600000BFB2E09DF8CE02002877D012A850F838
:1031700024100DF2CE20FDF734F800286ED16CA19A
:103180000DF2CE20FDF714F840B16B4850231A46DB
:10319000C82100909420FEF7D3F98CE00DF2CE20E8
:1031A0001499FDF71EF828B10DF2CE201399FDF702
:1031B00018F840B9614850231A46C821009094205D
:1031C000FEF7BEF977E00DF2CE201599FDF709F86C
:1031D00040B95B4850231A46C82100909420FEF75E
:1031E000AFF968E057A10DF2CE20FCF7E1FF40B146
:1031F000554850231A46C82100909420FEF7A0F9A4
:1032000059E052A10DF2CE20FCF7D2FF40B1514857
:1032100050231A46C82100909420FEF791F94AE005
:103220004DA10DF2CE20FCF7C3FF40B14B48502317
:103230001A46C82100909420FEF782F93BE048A18D
:103240000DF2CE20FCF7B4FF48B1464850231A4691
:10325000C82100909420FEF773F92CE033E042A1DE
:103260000DF2CE20FCF7A4FF40B1404850231A468F
:10327000C82100909420FEF763F91CE03CA10DF2F8
:10328000CE20FCF795FF40B13B4850231A46C82199
:1032900000909420FEF754F90DE038A10DF2CE20F5
:1032A000FCF786FF38B1374850231A46C8210090F2
:1032B0009420FEF745F946A850F824100DF2CE20D0
:1032C000FCF79DFF04E0601CC4B2342CFFF64AAF4B
:1032D00000BF144A144BBBA80DF2E221CDE9033222
:1032E000CDE90110B6A80DF2CE23ACAAB1A9009089
:1032F00025A0FFF76FF94622ACA92846FCF734FF5A
:103300000DF53E7D70BD0000E85002083E0400202F
:1033100025730D0A20646174616C656E2D2D3E2548
:10332000640D0A003E0800204808002050BE020834
:1033300071696E6700000000E85C0008E8EC0108B5
:10334000E85601086C656900E88E000873686163DF
:1033500068656E00E8C0000877750000E8F20008B4
:1033600078756500E824010879750000E88801088F
:1033700079756A6961000000E8BA01087A68656ECB
:1033800079750000E81E0208312D2D257320322D9D
:103390002D257320332D2D257320342D2D257320BD
:1033A000352D2D257320362D2D257320372D2D25D8
:1033B0007320382D2D25730D0A00000010B5FDF780
:1033C000C3FBFEF78BF9FDF757FBFEF72FFC4FF61B
:1033D000FF70FDF7D3FD002002490880FFF796F843
:1033E00010BD0000200000200246501A022805DC13
:1033F000501A10F1020F01DD012070470020FCE798
:10340000F0B503460D461646002729460A2E03D07E
:10341000002008702846F0BD33B9302001F8010BB8
:10342000002008702846F6E7002B03DA2D2001F86B
:10343000010B5B4242F210720DE093FBF2F404B90F
:1034400037B104F1300001F8010B04FB12330127FE
:103450000A2092FBF0F2002AEFDC002008702846D8
:10346000D9E7000030B5884206DA00240D4D2C6003
:1034700001240D4D2C7005E001240A4D2C60002420
:10348000094D2C709A4206DD0124064D0C352C6046
:10349000064D2C7005E00024024D0C352C60034DC8
:1034A0002C7030BD94812142090000200A000020C8
:1034B000A4B000F04BFFFFF781FF4FF4EB734FF424
:1034C0009B720A210846FDF76DFE1F239CA20F2167
:1034D0008020FDF777FF00239BA22F211420FDF70A
:1034E00071FF9BA018210C230A46CDE90010322160
:1034F0007E20FEF76AF8002396A24F211420FDF7E4
:1035000061FF002395A24F217E20FDF75BFF002382
:1035100093A26F211420FDF755FF93A01821CDE948
:10352000001092484388028872217E20FEF74DF8F1
:103530008F48008899234FF49B72194600900A2007
:10354000FDF7CAFD1F238BA2A3215620FDF73AFFEA
:103550001F238AA2A321AA20FDF734FF002389A2FA
:1035600040F247111420FDF72DFF002387A240F2FF
:1035700067111420FDF726FF002379A240F287117E
:103580001420FDF71FFF002382A240F2A711142090
:10359000FDF718FF002381A240F2A7118C20FDF750
:1035A00011FFCCE07E4800F00DFF40B17C4800F0F8
:1035B00009FF044600F0DFFE7A49087004E00C20A1
:1035C00000F0D9FE77490870774800F0FBFE40B163
:1035D000754800F0F7FE044600F0CDFE7349087010
:1035E00004E0282000F0C7FE70490870FFF777FD5F
:1035F0006F49087018200323009008460278322192
:103600005420FDF753FF45F25840594908801020D7
:1036100003230090634802783521BA20FDF746FF66
:10362000002053490880FFF749FD11906148BDF81B
:10363000441001806420FFF7C6FCFFF73FFD1190A6
:103640005D48BDF84410018002461178594A10784F
:10365000FFF7CAFE30B157480078584908705548FE
:103660004078487018200090544802780323522173
:103670005420FDF71BFF1820009050484278032388
:1036800072215420FDF712FF4FF47840384908802A
:10369000102003230090454802785521BA20FDF7F9
:1036A00005FF002032490880444802783F480378EB
:1036B0003C4801783E480078FFF7D4FE6846FFF7A3
:1036C00013FD4822694612A8FCF74EFD00230DF1B8
:1036D00066024FF485715420FDF774FE12A8102184
:1036E0000B464FF48C72CDE9001040F24F1154207C
:1036F000FDF76BFF1CA81821CDE900101B4843887B
:1037000046224FF4B5715420FDF75FFF0DF17A00AA
:103710001821CDE900101548438846224FF4C571A1
:103720005420FDF752FF21A81821CDE900100F48C1
:10373000438846224FF4D5715420FDF746FF31E708
:10374000CAD2C4DA00000000B9E2D5D500000000FA
:1037500025000000CEC2B6C800000000A1E30000B2
:10376000CAAAB6C800000000255248002400002064
:1037700020000020CCECC6F800000000CEF7B0B26C
:1037800000000000CAB1BCE400000000C6F8CEC2D0
:1037900000000000B7E7C1A600000000BCB60000B2
:1037A0003E080020070000204808002008000020F4
:1037B0000000002001000020030000200500002080
:1037C0002DE9F04D1D460C4698B0174621F00041FA
:1037D00023F00043002814BF4FF0010C4FF0000C01
:1037E0000CEB440CFE4A0CEB02064FEA620C6645F9
:1037F0002BD33E0018BF012606EB45061644F94AB6
:10380000964222D3F84A53EA070C02D0944205D1DB
:1038100048B918B000201146BDE8F08D002808BF57
:103820004FF0000C01D04FF0010C0CEB440212F5EC
:10383000001F0AD8002F14BF4FF0010C4FF0000CEE
:103840000CEB450212F5001F07D918B03A462B467B
:103850002146BDE8F04DFEF73FBF0022DFF88CA304
:10386000002CB8BF534526DADFF884C36345A8BFF0
:10387000022220DADFF870C39C451CDCDFF874C339
:103880000CEB235CBCF1140F08DDCCF1340627FAF5
:1038900006FC0CFA06F6BE420DD108E05FB9CCF189
:1038A000140623FA06FC0CFA06F69E4203D10CF02D
:1038B0000102C2F1020251EA000C19D1002D17DAFF
:1038C000002C18BF022A01D0012A07D00220FEF7DF
:1038D0002BFF18B0BDE8F04DFEF7F6BE0220FEF754
:1038E00023FFFEF7F1FE18B081F00041BDE8F08D36
:1038F000B7F1000C6CD1534525D104F1804212F58B
:10390000801201BF00280020B74918B008BFBDE8E9
:10391000F08DB548884207DC002DA1BF60462946DE
:1039200018B0BDE8F08D07E0281E05DA80F00041F0
:1039300018B06046BDE8F08DAF497944D1E9000187
:1039400018B0BDE8F08DDFF8A0C2634525D1002D89
:103950001FDA19B1514512D1D8B909E0002840F059
:10396000EC82A24A214618B062F31E01BDE8F08D38
:103970000020214618B060F31E01BDE8F08D08DA82
:1039800018B02346BDE8F04D024600206146FCF722
:103990007CBE18B02146BDE8F08D514518DAB5F16E
:1039A000804F0DD0A5F1005CBCF1FF5C10D1B4F1EB
:1039B000000C0DDB18B06146BDE8F04D00F0DCBC3A
:1039C000234618B00246BDE8F04D1946FCF7C7BCC7
:1039D000060024F0004C3BD1D9B1514533D1002C25
:1039E00006DD002DA1BF0020514618B0BDE8F08DC6
:1039F000002C01DD002D1BDB002C13DA002D11DB68
:103A0000012A4FF0000014BF78497C4918B0BDE886
:103A1000F08D022A18BF002C0AD0012A08D1002CF0
:103A200006DA0AE0002CB8BF002D11DA012A04D012
:103A3000002018B00146BDE8F08D18B000204FF00E
:103A40000041BDE8F08DA1F14050B0F17F601AD087
:103A5000012000EBE47050EA020421D0624C521EB7
:103A60004FF0000B104304BF4FF0000B644C65484F
:103A700083427CDD644A654893421FDD884217DB40
:103A8000002D25DB37E0002C00DA4AB1022A0CBFFA
:103A900001204FF0FF3018B0BDE8F04DFCF7D1BC6D
:103AA0000120FEF741FE18B0BDE8F04DFEF716BE4E
:103AB0004D4A8A4202DC002D0ADC1CE0814202DA17
:103AC000002D18DA04E0484B994220DD002D12DD6C
:103AD0000220FEF729FEFEF707FE05460E460022ED
:103AE000534658462146FCF73AFC18B066F31E01CF
:103AF0002846BDE8F08D0220FEF716FEFEF7FCFD1D
:103B00000A46214618B062F31E01BDE8F08D00227E
:103B100030466146FCF71DFC80460E466FF0010200
:103B2000FCF722FE4FF05532394BFCF715FC4246AC
:103B30003346FCF714FC0022364BFCF70DFC8246A2
:103B400042463346049110461946FCF708FC52469B
:103B5000049BFCF704FC8A4600904FF0C0422E4BB9
:103B600040463146FCF7FBFB2C4A2B4B00E027E09C
:103B7000CDE9060151460098FCF7F1FB8246019120
:103B8000274A284B40463146FCF7E9FB5246019B49
:103B9000FCF7DFFB82460B4602460591DDE9060194
:103BA000FCF736FBDDE90623002688463046FCF7A5
:103BB000D0FB5246059BFCF7CFFB024600F07EB9D6
:103BC0000020B1F5801F07DA352230466146FCF748
:103BD000CBFD06466FF0340000EB215024E00000DE
:103BE000FFFF1F00FFFF0F000000F03F0000F07F0D
:103BF0000000404301FCFFFF0A8502000000F0FFC7
:103C00000000F0BF0000E0410000F043FFFFEF3F85
:103C10005555D53F0000E03F4715F73FFE822B6525
:103C200044DF5DF80BAE543EA0F2FF300190C1F3CB
:103C3000130040F07F6141F040510291FE498842FB
:103C4000D8BF002004DDFD498142C8BF012001DD4D
:103C50000D9008E000200D900198401C0190029802
:103C6000A0F5801002900299F54878440B910D99C7
:103C700000EBC100D0E900230F9330460A920B9964
:103C8000FCF767FBCDE90601DDE90A2130460F9B11
:103C9000FCF7BEFA02460B460020EA49FCF7F5FCA9
:103CA000059102460B460090DDE90601FCF757FB43
:103CB0001490E5488A464FF000087844029900685D
:103CC00012904FF0005040EA61010D980F9B01EBFC
:103CD000804000F5002109910A9A1298FCF739FBFF
:103CE00032460B9BFCF738FB42465346FCF737FB4A
:103CF0000646029140465146099B129AFCF72FFB5B
:103D0000DDE90623FCF728FB3246029BFCF721FB8A
:103D1000059B009AFCF723FB0091149A04905346EC
:103D200010461946FCF71BFB06460246C7480B46E1
:103D3000029106217844FEF771FCCDE90510029B43
:103D4000324610461946FCF70AFBDDE90532FCF75E
:103D500006FB05910646534640461946149AFCF761
:103D600057FA009B049AFCF7FAFA3246059BFCF7D7
:103D70004FFACDE905104246534610461946FCF766
:103D8000EEFA0022B24B02910A90FCF741FADDE90B
:103D90000532FCF73DFA0E464246AD4B4046FCF775
:103DA000D8FA029B0A9AFCF7D4FADDE90532FCF74F
:103DB000D3FA424602910A90334610465146FCF728
:103DC000CEFACDE906015346149A02990A98FCF7F7
:103DD000C6FA8A4602903346424600990498FCF798
:103DE000BEFA5346029AFCF713FA82460B46024685
:103DF0000591DDE90601FCF70BFADDE90623002059
:103E000088460646FCF7A5FA5246059BFCF7A4FA3D
:103E1000824609914FF060428E4B30464146FCF796
:103E20009EFA049006918C4A8A4B50460999FCF7F9
:103E300096FA82460291894A894B30464146FCF700
:103E40008EFA5246029BFCF7E3F9864B7B440D9AAF
:103E500003EBC203D3E90023FCF7DAF90E900791D4
:103E60000198FCF7EEFA0591DDE9061382460E9AF9
:103E70000498FCF7CDF97C4A7A440D9B02EBC3030E
:103E8000D3E9002300930292FCF7C2F95246059B46
:103E9000FCF7BEF90026884652463046059BFCF7E3
:103EA00058FA009B029AFCF754FA069B049AFCF716
:103EB00050FA079B0E9AFCF74FFA024600200B4679
:103EC000029038462946FCF74AFA824601912B4671
:103ED00038461946029AFCF73CFA32464346FCF74C
:103EE0003EFA5246019BFCF793F907468A46324652
:103EF000434629460298FCF732FA05460E463A46F2
:103F00005346FCF785F9594A8846914221DBA8EBD4
:103F1000020353EA000210D12A463346FCF719FA8D
:103F2000CDE90401524A534B38465146FCF770F92B
:103F3000DDE90423FCF7BCFA21D20220FEF7F4FBF2
:103F4000FEF7D2FB0A46214618B062F31E01BDE817
:103F5000F08D494B28F000429A4210D3474A08EBB3
:103F6000020353EA00027FF4C6AD2A463346FCF74B
:103F7000F0F93A465346FCF79BFA7FF6BCAD0022B7
:103F8000019228F000403E493E4A01EB2051824216
:103F900023DA481C4FF4801121FA00F040443A4AD9
:103FA000C0F30A517A44394BA1F2FF31CB4020EAE9
:103FB0000303C0F3130040F48010C1F11401C840A2
:103FC00012680190B8F1000FBCBF40420190284632
:103FD0003146FCF7BEF905460E462A4633463846BA
:103FE0005146FCF715F94FF000084246284B404671
:103FF0000591FCF7B4F9CDE90601264A264B404667
:104000000599FCF7ACF9009102902A4633464046E8
:104010000599FCF79EF93A465346FCF79DF91F4A6D
:104020001F4BFCF79CF9009B029AFCF7F1F807463E
:10403000884602460B4635E08E9803007AB60B00A0
:10404000528102000000F03F8A810200B880020025
:104050000000084009C7EE3FFD033ADCF5015B14A0
:10406000E02F3EBE907F0200547F0200000090408F
:10407000FE822B654715973C00CC904000346F3F83
:1040800001FCFFFF0000E03FA07E0200FFFF0F00E9
:10409000432EE63F396CA80C615C20BEEF39FAFE76
:1040A000422EE63FDDE90601FCF7B2F8DDE9062322
:1040B00005460E46FCF74DF93A464346FCF74CF9E7
:1040C0000F462A463346009010461946FCF747F93A
:1040D000824602462E4888460B4605217844FEF764
:1040E0009DFA52464346FCF73AF92A463346FCF716
:1040F00033F980468A463B4628463146009AFCF70B
:104100002EF93B46009AFCF783F8069100900022B6
:104110004FF0804340465146FCF71BF90F460C9088
:104120004246534628463146FCF719F93B460C9A5D
:10413000FCF7ABFA069B009AFCF70BF92A463346CC
:10414000FCF707F90022134BFCF706F90546019826
:104150000E4601EB00510815002810DC28463146B8
:10416000019AFCF701FBFEF745FA042808BFFEF7A9
:10417000C3FA28463146019AFCF7F6FA05460B4683
:1041800018B02A4658462146BDE8F04DFCF7E7B87E
:10419000407D02000000F03F2DE9F34F93B00E4642
:1041A0004FF0000900250027A846AA460024304603
:1041B000FCF710F8834600BF5FE0BAF1080F57D252
:1041C000DFE80AF0040E18232D38424C002404E0E6
:1041D000002001A90855601CC4B2142CF8DB47E08C
:1041E000002404E0002106A80155601CC4B20A2C7A
:1041F000F8DB3DE0002405E000210DF1360001551B
:10420000601CC4B20A2CF7DB32E0002404E0002179
:104210000BA80155601CC4B20A2CF8DB28E000246E
:1042200005E000210DF122000155601CC4B20A2CEA
:10423000F7DB1DE0002404E0002110A80155601CFC
:10424000C4B20A2CF8DB13E0002404E000203B4950
:104250000855601CC4B20A2CF8DB09E0002404E015
:10426000002037490855601CC4B20A2CF8DB00BF97
:1042700000BF0AF1010000F0FF0ABAF1080F9CDB51
:1042800030A106A8FBF7BBFF4FF000094CE016F881
:1042900009002C2844D1781CC7B245463AE0012FCA
:1042A00005D1705DA5EB080101AA505430E0022F42
:1042B00006D1715DA5EB08020DF12200815427E0C3
:1042C000032F05D1715DA5EB08020BA881541FE0F7
:1042D000042F06D1715DA5EB08020DF13600815463
:1042E00016E0052F05D1715DA5EB080210A88154D9
:1042F0000EE0062F05D1705DA5EB0801104A505461
:1043000006E0072F04D1705DA5EB08010B4A50545D
:10431000681CC5B24D45C2DB09F1010000F0FF0881
:1043200009F1010000F0FF09D945B0DB462201A9DF
:104330001398FBF719FF15B0BDE8F08F3E08002079
:1043400048080020CEF7B0B20000000010B54820A9
:10435000FDF792FB4FF4A060FDF74CFAFDF77AF9F8
:104360004FF4E130FDF7E4FE48F6A0414FF47A70D7
:10437000FDF7E2FD10BD70472DE9F04106460F46FE
:10438000FCF734FA041E0D4618BF0120284320F024
:104390000040C0F17F6000F1E040C00F0ED0301C43
:1043A00018BF0120384320F00040C0F17F6000F1C9
:1043B000E040C00F04BF0120FEF7B6F920462946B1
:1043C000BDE8F0812DE9F04F89B081464FF0000B38
:1043D0000024002008904846FBF7FCFE00F0FF0A8E
:1043E00000BF38E019F804002F2801DD012000E0AB
:1043F00000203A282DDA19F80400303800F0FF0BBD
:10440000AAF10101081BFCF71CF802460B46CDE996
:10441000000100201349FFF7D3F9074688465846A4
:10442000FCF720F83A464346CDE90201FBF797FF37
:1044300005460E460898FCF715F82A463346CDE99E
:104440000401FBF7E5FECDE90601FCF718F8C0B260
:104450000890601CC4B25445C4DB089809B0BDE89C
:10446000F08F000000002440000000000000000069
:10447000000000000000000000000000000000003C
:10448000000000000000000000000000000000002C
:10449000000000000000000000000000000000001C
:1044A000000000000000000000000000000000000C
:1044B00000000000000000000000000000000000FC
:1044C00000000000000000000000000000000000EC
:1044D00000000000000000000000000000000000DC
:1044E00000000000000000000000000000000000CC
:1044F00000000000000000000000000000000000BC
:1045000000000000000000000000000000000000AB
:10451000000000000000000000000000000000009B
:10452000000000000000000000000000000000008B
:10453000000000000000000000000000000000007B
:10454000000000000000000000000000000000006B
:10455000000000000000000000000000000000005B
:10456000000000000000000000000000000000004B
:10457000000000000000000000000000000000003B
:10458000000000000000000000000000000000002B
:10459000000000000000000000000000000000001B
:1045A000000000000000000000000000000000000B
:1045B00000000000000000000000000000000000FB
:1045C0000000000000000000000000000000DA23EE
:1045D000BA239923DA23FB23FC2BFC2B1C2C1C2C49
:1045E0001C2C1C2C1C2C1C2C1C2C1C2C1C2C1C2C8B
:1045F0001C2C1C2C1C2C1C2C1C2C1C2C1C2C1C2C7B
:104600001C2C1C2CFC2BFC2BFB23DA23B923BA23F8
:10461000DA2300000000000000000000000000009D
:10462000000000000000000000000000000000008A
:1046300000000000000000000000DA23DB231C2C37
:104640003D2C5D2C5D2C5D2C5D2C5D2C5D2C5D2C42
:104650005D2C5D2C5D2C5D2C5D2C5D2C5D2C5D2C12
:104660005D2C5D2C5D2C5D2C5D2C5D2C5D2C5D2C02
:104670005D2C5D2C5D2C5D2C5D2C5D2C5D2C3D2C12
:104680001C2CDB23DA2300000000000000000000E7
:10469000000000000000000000000000000000001A
:1046A000000000000000BA23BA233D2C3D2C5D2CF5
:1046B0003D2C3D2C5D2C3D2C5D2C3D2C5D2C3D2C52
:1046C0003D2C5D2C3D2C5D2C3D2C5D2C3D2C3D2C42
:1046D0005D2C3D2C5D2C3D2C5D2C3D2C5D2C3D2C12
:1046E0003D2C5D2C3D2C5D2C3D2C5D2C3D2C3D2C22
:1046F0005D2C3D2C3D2CDB23DA2300000000000064
:1047000000000000000000000000000000000000A9
:10471000000000009923FB235D2C5D2C3D2C5D2CBB
:104720003D2C3D2C5D2C3D2C5D2C3D2C5D2C3D2CE1
:104730003D2C5D2C3D2C5D2C3D2C5D2C3D2C3D2CD1
:104740005D2C3D2C5D2C3D2C5D2C3D2C5D2C3D2CA1
:104750003D2C5D2C3D2C5D2C3D2C5D2C3D2C3D2CB1
:104760005D2C3D2C5D2C5D2CFB239923000000006B
:104770000000000000000000000000000000000039
:104780000000BA23FB2B5D2C5D2C5D2C5D2C5D2C79
:104790005D2C5D2C5D2C5D2C5D2C5D2C5D2C5D2CD1
:1047A0005D2C5D2C5D2C5D2C5D2C5D2C5D2C5D2CC1
:1047B0005D2C5D2C5D2C5D2C5D2C5D2C5D2C5D2CB1
:1047C0005D2C5D2C5D2C5D2C5D2C5D2C5D2C5D2CA1
:1047D0005D2C5D2C5D2C5D2C5D2CFB2BDA23000009
:1047E00000000000000000000000000000000000C9
:1047F0000000BA235D2C5D2C3D2C5D2C3D2C5D2CE6
:104800003D2C3D2C5D2C3D2C5D2C3D2C5D2C3D2C00
:104810003D2C5D2C3D2C5D2C3D2C5D2C3D2C3D2CF0
:104820005D2C3D2C5D2C3D2C5D2C3D2C5D2C3D2CC0
:104830003D2C5D2C3D2C5D2C3D2C5D2C3D2C3D2CD0
:104840005D2C3D2C5D2C3D2C5D2C5D2CBA23000095
:104850000000000000000000000000000000000058
:10486000BA233D2C5D2C5D2C5D2C5D2C5D2C5D2CCC
:104870005D2C5D2C5D2C5D2C5D2C5D2C5D2C5D2CF0
:104880005D2C5D2C5D2C5D2C5D2C5D2C5D2C5D2CE0
:104890005D2C5D2C5D2C5D2C5D2C5D2C5D2C5D2CD0
:1048A0005D2C5D2C5D2C5D2C5D2C5D2C5D2C5D2CC0
:1048B0005D2C5D2C5D2C5D2C5D2C5D2C3D2CDA235C
:1048C00000000000000000000000000000000000E8
:1048D000DB233D2C3D2C5D2C3D2C5D2C3D2C5D2C9B
:1048E0003D2C3D2C5D2C3D2C5D2C3D2C5D2C3D2C20
:1048F0003D2C5D2C3D2C5D2C3D2C5D2C3D2C3D2C10
:104900005D2C3D2C5D2C3D2C5D2C3D2C5D2C3D2CDF
:104910003D2C5D2C3D2C5D2C3D2C5D2C3D2C3D2CEF
:104920005D2C3D2C5D2C3D2C5D2C3D2C3D2CDB234A
:104930000000000000000000000000000000DA237A
:104940001C2C5D2C5D2C5D2C5D2C5D2C5D2C5D2C60
:104950005D2C5D2C5D2C5D2C5D2C5D2C5D2C5D2C0F
:104960005D2C5D2C5D2C5D2C5D2C5D2C5D2C5D2CFF
:104970005D2C5D2C5D2C5D2C5D2C5D2C5D2C5D2CEF
:104980005D2C5D2C5D2C5D2C5D2C5D2C5D2C5D2CDF
:104990005D2C5D2C5D2C5D2C5D2C5D2C5D2C1C2C10
:1049A000DB23000000000000000000000000BA232C
:1049B0003D2C3D2C3D2C5D2C3D2C5D2C3D2C5D2C4F
:1049C0003D2C3D2C5D2C3D2C5D2C3D2C5D2C3D2C3F
:1049D0003D2C5D2C3D2C5D2C3D2C5D2C3D2C3D2C2F
:1049E0005D2C3D2C5D2C3D2C5D2C5D2C9E3C5E6534
:1049F000DE85FE8DDE853E655D343D2C3D2C3D2CF7
:104A00005D2C3D2C5D2C3D2C5D2C3D2C3D2C3D2CFE
:104A1000DA23000000000000000000000000B923BD
:104A20005D2C3D2C3D2C5D2C3D2C5D2C3D2C5D2CBE
:104A30003D2C3D2C5D2C3D2C5D2C3D2C5D2C3D2CCE
:104A40003D2C5D2C3D2C5D2C3D2C5D2C3D2C3D2CBE
:104A50005D2C3D2C3D2C9E3CFE8D1FCFDFF7FFFFD4
:104A6000FFFFFFFFFFFFFFFF7FE73E653D2C3D2C73
:104A70005D2C3D2C5D2C3D2C5D2C3D2C3D2C5D2C6E
:104A8000B923000000000000000000000000DA234D
:104A90005D2C5D2C5D2C5D2C5D2C5D2C5D2C5D2CCE
:104AA0005D2C5D2C5D2C5D2C5D2C5D2C5D2C5D2CBE
:104AB0005D2C5D2C5D2C5D2C3D2C7D341E55BE7D0A
:104AC0001E8E1E96BFB6FFFFFFFFFFFFFFFF5FDFDB
:104AD0003E9E5E65FE543E65BFB6DFF7BE445D2C6C
:104AE0005D2C5D2C5D2C5D2C5D2C5D2C5D2C5D2C7E
:104AF000DA23000000000000000000000000FB239B
:104B00005D2C3D2C3D2C5D2C3D2C5D2C3D2C5D2CDD
:104B10003D2C3D2C5D2C3D2C5D2C3D2C5D2C3D2CED
:104B20003D2C5D2C5D2CFE549FAEBFEFFFFFFFFFC1
:104B3000FFFFFFFFFFFFFFFFFFFFFFFF3FD79E4489
:104B40003D2C5D2C3D2C5D2C5D2C7FA61E8E3D2CBE
:104B50005D2C3D2C5D2C3D2C5D2C3D2C3D2C5D2C8D
:104B6000FB23000000000000000000000000FB2B01
:104B70005D2C5D2C5D2C5D2C5D2C5D2C5D2C5D2CED
:104B80005D2C5D2C5D2C5D2C5D2C5D2C5D2C5D2CDD
:104B90005D2CBE44BFB6FFFFFFFFFFFFFFFFFFFF1F
:104BA000FFFFFFFFFFFFFFFFFFFFFFFFFFFFBFF75D
:104BB0001E8E5D345D2C5D2C5D2CDE4C7FAE5D2C3D
:104BC0005D2C5D2C5D2C5D2C5D2C5D2C5D2C5D2C9D
:104BD000FB2B000000000000000000000000FB2B89
:104BE0005D2C3D2C3D2C5D2C3D2C5D2C3D2C5D2CFD
:104BF0003D2C3D2C5D2C3D2C5D2C3D2C5D2C3D2C0D
:104C00005E65BFEFFFFFFFFFFFFFFFFFFFFFFFFF3F
:104C1000FFFFFFFFFFFFFFFFFFFFFFFFFFFFFFFFA4
:104C2000FFFF1FCFBE445D2C3D2C9E3C5EA63D2C5D
:104C30005D2C3D2C5D2C3D2C5D2C3D2C3D2C5D2CAC
:104C4000FC2B000000000000000000000000FC2B16
:104C50005D2C5D2C5D2C5D2C5D2C5D2C5D2C5D2C0C
:104C60005D2C5D2C5D2C5D2C5D2C5D2C3D2C9E7592
:104C7000DFFFFFFFFFFFFFFFFFFFFFFFFFFFFFFF64
:104C8000FFFFFFFFFFFFFFFFFFFFFFFFFFFFFFFF34
:104C9000FFFFFFFF7FE7BE445D2CFE54BE7D5D2C11
:104CA0005D2C5D2C5D2C5D2C5D2C5D2C5D2C5D2CBC
:104CB0001C2C000000000000000000000000FC2B85
:104CC0005D2C3D2C3D2C5D2C3D2C5D2C3D2C5D2C1C
:104CD0003D2C3D2C5D2C3D2C5D2C3D2C5E65DFFF7D
:104CE000FFFFBFEF1FCFFFFFFFFFFFFFFFFFFFFF34
:104CF000FFFFFFFFFFFFFFFFFFFFFFFFFFFFFFFFC4
:104D0000FFFFFFFFFFFF7FDF9E3CDE85BE443D2CA3
:104D10005D2C3D2C5D2C3D2C5D2C3D2C3D2C5D2CCB
:104D20001C2C000000000000000000000000FC2B14
:104D30005D2C3D2C3D2C5D2C3D2C5D2C3D2C5D2CAB
:104D40003D2C3D2C5D2C3D2C5D2C9E3C9FEFFFFFB0
:104D5000FFC69E75DFF7FFFFFFFFFFFFFFFF7FE747
:104D60009FB65FA6BFB67FE7FFFFFFFFFFFFFFFF16
:104D7000FFFFFFFFFFFFFFFFBFBE5E9E3D2C3D2CF0
:104D80005D2C3D2C5D2C3D2C5D2C3D2C3D2C5D2C5B
:104D90001C2C000000000000000000000000FC2BA4
:104DA0005D2C5D2C5D2C5D2C5D2C5D2C5D2C5D2CBB
:104DB0005D2C5D2C5D2C5D2C3D2C9FAEFFFF5E9E1F
:104DC0001E5DDFF7FFFFFFFFFFFF7FE75E6D5D2CDE
:104DD0005D2C5D2C5D2C5D2C5E6D7FE7FFFFFFFF82
:104DE000FFFFFFFFFFFFFFFFFFFFFE8D5D2C5D2C30
:104DF0005D2C5D2C5D2C5D2C5D2C5D2C5D2C5D2C6B
:104E00001C2C000000000000000000000000FC2B33
:104E10005D2C3D2C3D2C5D2C3D2C5D2C3D2C5D2CCA
:104E20003D2C3D2C5D2C3D2CDE4CDFF7FE8DDE4C09
:104E30009FEFFFFFFFFFFFFF5FD79E3C3D2C3D2C08
:104E40005D2C3D2C5D2C3D2C5D2C9E3C5FD7FFFFE7
:104E5000FFFFFFFFFFFFFFFFFFFF5FD75D2C3D2C34
:104E60005D2C3D2C5D2C3D2C5D2C3D2C3D2C5D2C7A
:104E70001C2C000000000000000000000000FC2BC3
:104E80005D2C5D2C5D2C5D2C5D2C5D2C5D2C5D2CDA
:104E90005D2C5D2C5D2C3D2C3E9EDE857D345FD7E8
:104EA000FFFFFFFFFFFFDFF7DE4C5D2C5D2C5D2C6D
:104EB0005D2C5D2C5D2C5D2C5D2C5D2CDE4CDFFFB4
:104EC000FFFFFFFFFFFFFFFFFFFFFFFF1E5D5D2CEA
:104ED0005D2C5D2C5D2C5D2C5D2C5D2C5D2C5D2C8A
:104EE0001C2C000000000000000000000000FC2B53
:104EF0005D2C3D2C3D2C5D2C3D2C5D2C3D2C5D2CEA
:104F00003D2C3D2C5D2C5D2C9E755D2C9FB6FFFFCE
:104F1000FFFFFFFFFFFF9FAE3D2C5D2C3D2C3D2C86
:104F20005D2C3D2C5D2C3D2C5D2C3D2C3D2C9FB6ED
:104F3000FFFFFFFFFFFFFFFFFFFFFFFF5E9E3D2C18
:104F40005D2C3D2C5D2C3D2C5D2C3D2C3D2C5D2C99
:104F50001C2C000000000000000000000000FC2BE2
:104F60005D2C5D2C5D2C5D2C5D2C5D2C5D2C5D2CF9
:104F70005D2C5D2C5D2C5D2C5D2C9E7DFFFFFFFF6D
:104F8000FFFFFFFFFFFF9E753D2C3D2C3D2C3D2C70
:104F90003D2C3D2C3D2C3D2C3D2C3D2C3D2C9E7D17
:104FA000FFFFFFFFFFFFFFFFFFFFFFFF3FD75D2C6E
:104FB0005D2C5D2C5D2C5D2C5D2C5D2C5D2C5D2CA9
:104FC0001C2C000000000000000000000000FC2B72
:104FD0005D2C3D2C3D2C5D2C3D2C5D2C3D2C5D2C09
:104FE0003D2C3D2C5D2C3D2CBE44BFEFFFFFFFFF51
:104FF000FFFFFFFFFFFF5FDF1FCF1FCF1FCF1FCFC1
:105000001FCF1FCF1FCF1FCF1FCF1FCF1FCF5FDFE0
:10501000FFFFFFFFFFFFFFFFFFFFFFFFBFEF5D345D
:105020005D2C3D2C5D2C3D2C5D2C3D2C3D2C5D2CB8
:105030001C2C000000000000000000000000FC2B01
:105040005D2C5D2C5D2C5D2C5D2C5D2C5D2C5D2C18
:105050005D2C5D2C5D2C5D2CDFBEFFFFFFFFFFFF95
:10506000FFFFFFFFFFFFFFFFFFFFFFFFFFFFFFFF50
:10507000FFFFFFFFFFFFFFFFFFFFFFFFFFFFFFFF40
:10508000FFFFFFFFFFFFFFFFFFFFFFFFDFFF9E3C74
:105090005D2C5D2C5D2C5D2C5D2C5D2C5D2C5D2CC8
:1050A0001C2C000000000000000000000000FC2B91
:1050B0005D2C3D2C3D2C5D2C3D2C5D2C3D2C5D2C28
:1050C0003D2C3D2C5D2C5E6DFFFFFFFFFFFFFFFFC2
:1050D000FFFFFFFFFFFFFFFFFFFFFFFFFFFFFFFFE0
:1050E000FFFFFFFFFFFFFFFFFFFFFFFFFFFFFFFFD0
:1050F000FFFFFFFFFFFFFFFFFFFFFFFFFFFF9E3CE4
:105100005D2C3D2C5D2C3D2C5D2C3D2C3D2C5D2CD7
:105110001C2C000000000000000000000000FC2B20
:105120005D2C3D2C3D2C5D2C3D2C5D2C3D2C5D2CB7
:105130003D2C3D2C5D345FDFFFFFFFFFFFFFFFFFD6
:10514000FFFFFFFFFFFFFFFFDFF7DFF7DFF7DFF70F
:10515000DFF7DFF7DFF7DFF7DFF7DFF7DFF7DFF79F
:10516000DFF7DFF7DFF7DFF7DFF7DFF7BFEF7D34DC
:105170005D2C3D2C5D2C3D2C5D2C3D2C3D2C5D2C67
:105180001C2C000000000000000000000000FC2BB0
:105190005D2C5D2C5D2C5D2C5D2C5D2C5D2C5D2CC7
:1051A0005D2C5D2CBE85FFFFFFFFFFFFFFFFFFFFB4
:1051B000FFFFFFFFFFFF9E755D345D345D345D349E
:1051C0005D345D345D345D345D345D345D345D3457
:1051D0005D345D345D345D345D345D345D2C5D2C57
:1051E0005D2C5D2C5D2C5D2C5D2C5D2C5D2C5D2C77
:1051F0001C2C000000000000000000000000FC2B40
:105200005D2C3D2C3D2C5D2C3D2C5D2C3D2C5D2CD6
:105210003D2C5D349FE7FFFFFFFFFFFFFFFFFFFF18
:10522000FFFFFFFFFFFF1E963D2C5D2C3D2C3D2C0C
:105230005D2C3D2C5D2C3D2C5D2C3D2C5D2C3D2CA6
:105240003D2C5D2C3D2C5D2C3D2C5D2C3D2C3D2CB6
:105250005D2C3D2C5D2C3D2C5D2C3D2C3D2C5D2C86
:105260001C2C000000000000000000000000FC2BCF
:105270005D2C5D2C5D2C5D2C5D2C5D2C5D2C5D2CE6
:105280005D2C9E75FFFFFFFFDFF7FFFFFFFFFFFFB6
:10529000FFFFFFFFFFFF7FE75D345D2C5D2C5D2C82
:1052A0005D2C5D2C5D2C5D2C5D2C5D2C5D2CDE4C15
:1052B000DE4CDE4CDE4CDE4CDE4CDE4C7D345D2CB8
:1052C0005D2C5D2C5D2C5D2C5D2C5D2C5D2C5D2C96
:1052D0001C2C000000000000000000000000FC2B5F
:1052E0005D2C3D2C3D2C5D2C3D2C5D2C3D2C5D2CF6
:1052F0003D2C1FCFFFFFBFEF9E7DFFFFFFFFFFFF96
:10530000FFFFFFFFFFFFFFFF3E9E5D2C3D2C3D2C6E
:105310005D2C3D2C5D2C3D2C5D2C3D2CBE7DFFFF7E
:10532000FFFFFFFFFFFFFFFFFFFFDFF77D3C3D2C8F
:105330005D2C3D2C5D2C3D2C5D2C3D2C3D2C5D2CA5
:105340001C2C000000000000000000000000FC2BEE
:105350005D2C5D2C5D2C5D2C5D2C5D2C5D2C5D2C05
:105360007D3CDFF7FFFF5E9E5D345FDFFFFFFFFFE9
:10537000FFFFFFFFFFFFFFFFFFFF3E9E5D345D2C41
:105380005D2C5D2C5D2C5D2C5D2CDE85DFFFFFFF31
:10539000FFFFFFFFFFFFFFFFFFFF5E9E3D2C5D2C29
:1053A0005D2C5D2C5D2C5D2C5D2C5D2C5D2C5D2CB5
:1053B0001C2C000000000000000000000000FC2B7E
:1053C0005D2C3D2C3D2C5D2C3D2C5D2C3D2C5D2C15
:1053D0001E5DFFFFFFFFFE545D2C5E6DFFFFFFFFB4
:1053E000FFFFFFFFFFFFFFFFFFFFFFFF7FE7FE8DD8
:1053F0001E5DBE44FE54BE7D3FD7FFFFFFFFFFFF93
:10540000FFFFFFFFFFFFFFFF9FE79E3C3D2C3D2C72
:105410005D2C3D2C5D2C3D2C5D2C3D2C3D2C5D2CC4
:105420001C2C000000000000000000000000FC2B0D
:105430005D2C3D2C3D2C5D2C3D2C5D2C3D2C5D2CA4
:10544000BE7DFFFF9FE75D345D2C5D2C7FA6FFFFD7
:10545000FFFFFFFFFFFFFFFFFFFFFFFFFFFFFFFF5C
:10546000FFFFFFFFFFFFFFFFFFFFFFFFFFFFFFFF4C
:10547000FFFFFFFFFFFFFFFF5E6D3D2C3D2C3D2C2E
:105480005D2C3D2C5D2C3D2C5D2C3D2C3D2C5D2C54
:105490001C2C000000000000000000000000FC2B9D
:1054A0005D2C5D2C5D2C5D2C5D2C5D2C5D2C5D2CB4
:1054B000FE8DFFFFFFC63D2C5D2C5D2C5D34FFC6CD
:1054C000FFFFFFFFFFFFFFFFFFFFFFFFFFFFFFFFEC
:1054D000FFFFFFFFFFFFFFFFFFFFFFFFFFFFFFFFDC
:1054E000FFFFFFFFFFFFFE8D5D2C5D2C5D2C5D2C13
:1054F0005D2C5D2C5D2C5D2C5D2C5D2C5D2C5D2C64
:105500001C2C000000000000000000000000FB2B2D
:105510005D2C3D2C3D2C5D2C3D2C5D2C3D2C5D2CC3
:10552000FE8DFFFFBFB63D2C5D2C3D2C5D2C7D34E8
:10553000DFBEFFFFFFFFFFFFFFFFFFFFFFFFFFFFDC
:10554000FFFFFFFFFFFFFFFFFFFFFFFFFFFFFFFF6B
:10555000FFFFFFFFDE8D5D2C3D2C5D2C3D2C3D2C97
:105560005D2C3D2C5D2C3D2C5D2C3D2C3D2C5D2C73
:10557000FC2B000000000000000000000000FB2BDE
:105580005D2C5D2C5D2C5D2C5D2C5D2C5D2C5D2CD3
:105590009E75FFFF3FD75D2C5D2C5D2C5D2C5D2C37
:1055A0005D2C1E96DFF7FFFFFFFFFFFFFFFFFFFFF2
:1055B000FFFFFFFFFFFFFFFFFFFFFFFFFFFFFFFFFB
:1055C0009FE75E653D2C5D2C5D2C5D2C5D2C5D2C7C
:1055D0005D2C5D2C5D2C5D2C5D2C5D2C5D2C5D2C83
:1055E000FB2B000000000000000000000000FB2377
:1055F0005D2C3D2C3D2C5D2C3D2C5D2C3D2C5D2CE3
:105600009E3CBFF7FFFF9E755D2C3D2C3D2C3D2C35
:105610009E441E963FD7DFBEDFF7FFFFFFFFFFFF71
:10562000FFFFFFFFFFFFFFFFFFFFFFFF9FEF1E9644
:105630007D345D2C3D2C5D2C3D2C5D2C3D2C3D2C7A
:105640005D2C3D2C5D2C3D2C5D2C3D2C3D2C5D2C92
:10565000FB23000000000000000000000000DA232F
:105660005D2C5D2C5D2C5D2C5D2C5D2C5D2C5D2CF2
:105670003D2C9E75DFFFFFFFFFC63E9E5EA6FFC668
:10568000DFBE7E755D343D2CBE44BE7DBFB65FDFA0
:10569000BFEFBFF79FEF3FD77FA65E6D7D343D2CF8
:1056A0005D2C5D2C5D2C5D2C5D2C5D2C5D2C5D2CB2
:1056B0005D2C5D2C5D2C5D2C5D2C5D2C5D2C5D2CA2
:1056C000DA23000000000000000000000000B92301
:1056D0005D2C3D2C3D2C5D2C3D2C5D2C3D2C5D2C02
:1056E0003D2C3D2CBE44DE853E9EFE8D5E6D7D3C98
:1056F0003D2C5D2C3D2C5D2C3D2C5D2C3D2C3D2C02
:105700003D2C3D2C3D2C3D2C5D2C3D2C5D2C3D2C11
:105710003D2C5D2C3D2C5D2C3D2C5D2C3D2C3D2CE1
:105720005D2C3D2C5D2C3D2C5D2C3D2C3D2C5D2CB1
:10573000B923000000000000000000000000BA23B0
:105740003D2C3D2C3D2C5D2C3D2C5D2C3D2C5D2CB1
:105750003D2C3D2C5D2C3D2C5D2C3D2C5D2C3D2CA1
:105760003D2C5D2C3D2C5D2C3D2C5D2C3D2C3D2C91
:105770005D2C3D2C5D2C3D2C5D2C3D2C5D2C3D2C61
:105780003D2C5D2C3D2C5D2C3D2C5D2C3D2C3D2C71
:105790005D2C3D2C5D2C3D2C5D2C3D2C3D2C3D2C61
:1057A000BA23000000000000000000000000DA231F
:1057B0001C2C5D2C5D2C5D2C5D2C5D2C5D2C5D2CE2
:1057C0005D2C5D2C5D2C5D2C5D2C5D2C5D2C5D2C91
:1057D0005D2C5D2C5D2C5D2C5D2C5D2C5D2C5D2C81
:1057E0005D2C5D2C5D2C5D2C5D2C5D2C5D2C5D2C71
:1057F0005D2C5D2C5D2C5D2C5D2C5D2C5D2C5D2C61
:105800005D2C5D2C5D2C5D2C5D2C5D2C5D2C1C2C91
:10581000DB2300000000000000000000000000008A
:10582000DB233D2C3D2C5D2C3D2C5D2C3D2C5D2C3B
:105830003D2C3D2C5D2C3D2C5D2C3D2C5D2C3D2CC0
:105840003D2C5D2C3D2C5D2C3D2C5D2C3D2C3D2CB0
:105850005D2C3D2C5D2C3D2C5D2C3D2C5D2C3D2C80
:105860003D2C5D2C3D2C5D2C3D2C5D2C3D2C3D2C90
:105870005D2C3D2C5D2C3D2C5D2C3D2C3D2CDB23EB
:105880000000000000000000000000000000000018
:10589000BA233D2C5D2C5D2C5D2C5D2C5D2C5D2C8C
:1058A0005D2C5D2C5D2C5D2C5D2C5D2C5D2C5D2CB0
:1058B0005D2C5D2C5D2C5D2C5D2C5D2C5D2C5D2CA0
:1058C0005D2C5D2C5D2C5D2C5D2C5D2C5D2C5D2C90
:1058D0005D2C5D2C5D2C5D2C5D2C5D2C5D2C5D2C80
:1058E0005D2C5D2C5D2C5D2C5D2C5D2C3D2CDA231C
:1058F00000000000000000000000000000000000A8
:105900000000BA235D2C5D2C3D2C5D2C3D2C5D2CC4
:105910003D2C3D2C5D2C3D2C5D2C3D2C5D2C3D2CDF
:105920003D2C5D2C3D2C5D2C3D2C5D2C3D2C3D2CCF
:105930005D2C3D2C5D2C3D2C5D2C3D2C5D2C3D2C9F
:105940003D2C5D2C3D2C5D2C3D2C5D2C3D2C3D2CAF
:105950005D2C3D2C5D2C3D2C5D2C5D2CBA23000074
:105960000000000000000000000000000000000037
:105970000000BA23FB2B5D2C5D2C5D2C5D2C5D2C77
:105980005D2C5D2C5D2C5D2C5D2C5D2C5D2C5D2CCF
:105990005D2C5D2C5D2C5D2C5D2C5D2C5D2C5D2CBF
:1059A0005D2C5D2C5D2C5D2C5D2C5D2C5D2C5D2CAF
:1059B0005D2C5D2C5D2C5D2C5D2C5D2C5D2C5D2C9F
:1059C0005D2C5D2C5D2C5D2C5D2CFB2BBA23000027
:1059D00000000000000000000000000000000000C7
:1059E000000000009923FB235D2C5D2C3D2C5D2CD9
:1059F0003D2C3D2C5D2C3D2C5D2C3D2C5D2C3D2CFF
:105A00003D2C5D2C3D2C5D2C3D2C5D2C3D2C3D2CEE
:105A10005D2C3D2C5D2C3D2C5D2C3D2C5D2C3D2CBE
:105A20003D2C5D2C3D2C5D2C3D2C5D2C3D2C3D2CCE
:105A30005D2C3D2C5D2C5D2CFB2399230000000088
:105A40000000000000000000000000000000000056
:105A5000000000000000BA23DA233D2C3D2C5D2C11
:105A60003D2C3D2C5D2C3D2C5D2C3D2C5D2C3D2C8E
:105A70003D2C5D2C3D2C5D2C3D2C5D2C3D2C3D2C7E
:105A80005D2C3D2C5D2C3D2C5D2C3D2C5D2C3D2C4E
:105A90003D2C5D2C3D2C5D2C3D2C5D2C3D2C3D2C5E
:105AA0005D2C3D2C3D2CBA23BA23000000000000E1
:105AB00000000000000000000000000000000000E6
:105AC00000000000000000000000BA23DB231C2CB3
:105AD0003D2C5D2C5D2C5D2C5D2C5D2C5D2C5D2C9E
